:100000000C94DD020C9405030C9405030C94050379
:100010000C9405030C9405030C9405030C94050340
:100020000C9405030C9405030C9405030C94050330
:100030000C9405030C9405030C9405030C94050320
:100040000C9473090C9405030C940B0F0C94E50E9F
:100050000C9405030C9405030C9405030C94050300
:100060000C94BD090C94050300000000003E5B4F9A
:100070005B3E3E6B4F6B3E1C3E7C3E1C183C7E3C08
:10008000181C577D571C1C5E7F5E1C00183C180016
:10009000FFE7C3E7FF0018241800FFE7DBE7FF30A6
:1000A000483A060E2629792926407F050507407F14
:1000B00005253F5A3CE73C5A7F3E1C1C08081C1C87
:1000C0003E7F14227F22145F5F005F5F06097F017D
:1000D0007F006689956A606060606094A2FFA29468
:1000E00008047E040810207E201008082A1C080836
:1000F0001C2A08081E101010100C1E0C1E0C303884
:100100003E3830060E3E0E06000000000000005F84
:1001100000000007000700147F147F14242A7F2AA0
:100120001223130864623649562050000807030062
:10013000001C2241000041221C002A1C7F1C2A08AE
:10014000083E080800807030000808080808000011
:1001500060600020100804023E5149453E00427F85
:10016000400072494949462141494D331814127FD4
:100170001027454545393C4A494931412111090774
:100180003649494936464949291E000014000000F5
:1001900040340000000814224114141414140041C7
:1001A00022140802015909063E415D594E7C121184
:1001B000127C7F494949363E414141227F414141BC
:1001C0003E7F494949417F090909013E4141517337
:1001D0007F0808087F00417F41002040413F017FA8
:1001E000081422417F404040407F021C027F7F0470
:1001F00008107F3E4141413E7F090909063E4151B9
:10020000215E7F09192946264949493203017F01A8
:10021000033F4040403F1F2040201F3F4038403FA9
:10022000631408146303047804036159494D4300BF
:100230007F4141410204081020004141417F0402F6
:10024000010204404040404000030708002054548D
:1002500078407F284444383844444428384444286B
:100260007F385454541800087E090218A4A49C78BE
:100270007F0804047800447D40002040403D007F1A
:100280001028440000417F40007C047804787C08FA
:100290000404783844444438FC18242418182424CE
:1002A00018FC7C08040408485454542404043F44B3
:1002B000243C4040207C1C2040201C3C4030403CE2
:1002C00044281028444C9090907C4464544C440042
:1002D00008364100000077000000413608000201A6
:1002E0000204023C2623263C1EA1A161123A404092
:1002F000207A38545455592155557941225454780F
:1003000042215554784020545579400C1E527212A7
:100310003955555559395454545939555454580030
:1003200000457C410002457D420001457C407D1234
:1003300011127DF0282528F07C5455450020545496
:100340007C547C0A097F4932494949323A44444441
:100350003A324A4848303A4141217A3A424020787C
:10036000009DA0A07D3D4242423D3D4040403D3C7D
:1003700024FF2424487E4943662B2FFC2F2BFF09A2
:1003800029F620C0887E0903205454794100004496
:100390007D413048484A32384040227A007A0A0A81
:1003A000727D0D19317D2629292F282629292926F4
:1003B00030484D4020380808080808080808382F39
:1003C00010C8ACBA2F102834FA00007B00000814C3
:1003D0002A142222142A14085500550055AA55AA99
:1003E00055AAFF55FF55FF000000FF00101010FF39
:1003F00000141414FF001010FF00FF1010F010F094
:10040000141414FC001414F700FF0000FF00FF1484
:1004100014F404FC141417101F10101F101F1414D0
:10042000141F00101010F0000000001F101010101A
:100430001F10101010F010000000FF10101010100E
:1004400010101010FF10000000FF140000FF00FF4C
:1004500000001F10170000FC04F4141417101714E8
:1004600014F404F40000FF00F7141414141414140A
:10047000F700F7141414171410101F101F1414147D
:10048000F4141010F010F000001F101F0000001FE7
:1004900014000000FC140000F010F01010FF10FF1A
:1004A000141414FF141010101F00000000F010FFAF
:1004B000FFFFFFFFF0F0F0F0F0FFFFFF0000000093
:1004C00000FFFF0F0F0F0F0F3844443844FC4A4A17
:1004D0004A347E02020606027E027E0263554941CC
:1004E000633844443C04407E201E2006027E020203
:1004F00099A5E7A5991C2A492A1C4C7201724C3017
:100500004A4D4D303048784830BC625A463D3E49ED
:100510004949007E0101017E2A2A2A2A2A44445F91
:10052000444440514A444040444A51400000FF0185
:1005300003E080FF000008086B6B08361236243693
:10054000060F090F060000181800000010100030F8
:1005500040FF0101001F01011E00191D1712003C80
:100560003C3C3C00000000000000000800020100CC
:10057000000304070000000000000000000000006D
:10058000250028002B0000000000240027002A007E
:100590000404040404040404020202020202030329
:1005A0000303030301020408102040800102040831
:1005B0001020010204081020AB1311241FBECFEF3E
:1005C000D8E0DEBFCDBF11E0A0E0B1E0EEE3F8E29D
:1005D00002C005900D92A03AB107D9F722E0A0EA37
:1005E000B1E001C01D92A73EB207E1F712E0CDEDE8
:1005F000D2E004C02197FE010E941214CC3DD10725
:10060000C9F70E948A100C941D140C94000085ED0B
:100610008093BC008091BC0084FDFCCF1092E90166
:1006200008954091C301262F30E0240F311D21325F
:100630003105DCF42091E9012430C9F4FC0180E0AB
:1006400090E0861758F43091C3012191DC01AF5539
:10065000BE4FA30FB11D2C930196F3CF8091C30120
:10066000680F6093C30180E0089581E0089582E0FF
:10067000089508958FEF9FEF08958FEF9FEF0895EE
:100680008091A00190E09195819591090895CF9373
:10069000DF9300D0CDB7DEB7CB01642F49835A83F7
:1006A0000E9411034981842F5A81952F0F900F903A
:1006B000DF91CF910895CF93DF931F92CDB7DEB72F
:1006C000698361E0CE0101960E94110381E090E010
:1006D0000F90DF91CF910895EF92FF920F931F93A8
:1006E000DC01ED91FC91260F371F04A0F5A1E02D50
:1006F00078018A0109951F910F91FF90EF9008955D
:10070000EF92FF920F931F937801DC01ED91FC9122
:100710008A01020F131F04A0F5A1E02D9B0109958A
:100720001F910F91FF90EF9008958EBD00000DB4C2
:1007300007FEFDCF8EB5089508958CBD9DBD08952B
:100740000895FC016370658B8481958126813781D2
:10075000613039F0633029F09187808733872287B1
:100760000895318720879387828708952F923F923B
:100770004F925F926F927F928F929F92AF92BF92B1
:10078000CF92DF92EF92FF920F931F93CF93DF935D
:10079000CDB7DEB76C970FB6F894DEBF0FBECDBFF6
:1007A0009C8F8B8F5B011A011F830E833701C982D7
:1007B000DC0158964D915C9159974115510509F00E
:1007C000E5C018968D919C911997681779070CF0E0
:1007D000CAC11A968D919C911B97281639060CF068
:1007E000C2C18C2C912CFB0136E0C39EE00DF11DA3
:1007F0001124FB87EA871E161F060CF0B4C1C40142
:1008000033E0880F991F3A95E1F79D878C87820D19
:10081000931D181619060CF0A6C157968C918111DC
:1008200003C0203B08F02F5FAB8DBC8DED91FC9198
:1008300011970284F385E02DCD012A8F09952A8D29
:10084000B5E02B9F90011124F5013596FF87EE87C7
:10085000BB82AA822501A9014A195B09598B488BE1
:10086000C10108969B8B8A8BE889F989E40DF51DF7
:10087000E859FF4F9491988761013D822C82A885A9
:10088000A0FF13C0AB8DBC8DED91FC91B981B1304F
:1008900031F40484F585E02D2E813F8116C0068455
:1008A000F785E02DEE80FF801AC0EE81FF816E1685
:1008B0007F06F1F0AB8DBC8DED91FC91B981B1302B
:1008C00051F40484F585E02D9301A601B2018B8DCE
:1008D0009C8D09950DC00684F785E02D7301840178
:1008E00094014C815D816A817B818B8D9C8D099502
:1008F000E885E695E887FFEFCF1ADF0A2C813D8176
:10090000280D391D3D832C834A895B89C416D50681
:1009100009F0B5CF5FEF451A550A8A819B81880D92
:10092000991D9B838A83AE85BF854A165B0609F0B5
:100930009BCFEE81FF816E167F0609F4F2C0EB8D2E
:10094000FC8DA081B181F981F13079F4B5016B5F43
:100950007F4F5096ED91FC915197830128E030E054
:10096000A1018B8D9C8D0995DCC06A857B856819FA
:1009700079091E96ED91FC911F9773010C851D85D9
:100980009401A1018B8D9C8D0995CBC0FA01349601
:100990009491329765917491291BCB01B7E02B9FFD
:1009A000800D911D1124FA01259134913B8B2A8BE6
:1009B000FC01459154915B834A83FC013296C490BB
:1009C000319654915E87329614913196D4908981F4
:1009D000823058F0612E012E000C7708AD2D0D2CC1
:1009E000000CBB0BB987A88704C019861886612C38
:1009F000712CAB8DBC8DED91FC9111970284F38528
:100A0000E02DCD010995B9818B2E912C689CC001F8
:100A1000699C900D789C900D1124FC01EA0DFB1D42
:100A2000FD87EC871C82712C612CE12F110FFF0BCD
:100A300095012E0F3F1F3B872A87AC0CB11CA501E7
:100A40004E0F5F1F5F8B4E8BC1018D0D911DD7FC2B
:100A50009A95998F888F4E85641608F062C0862D0E
:100A600090E048855985480F591F489D9001499D40
:100A7000300D589D300D1124D901A20DB31DB98B35
:100A8000A88BAA84BB844C845D84DC80BA85DB1A85
:100A9000E88DF98DE80FF91FFD8BEC8B8D2D8A0DFC
:100AA0002E893F89A216B306B9F1877061F48A8155
:100AB0009B810196EA89FB89AA81BB81EA0FFB1F12
:100AC00074909B838A8377FE20C0AB8DBC8DED91A3
:100AD000FC91B981B13061F40484F585E02D2E815B
:100AE0003F814C895D89B5018B8D9C8D09950DC029
:100AF0000684F785E02DEE80FF808401940148890B
:100B00005989B2018B8D9C8D0995770CEFEFAE1A48
:100B1000BE0A480C591CC2CF3C813C0D3C836394F7
:100B20009ACFAB8DBC8DED91FC9111970688F7891A
:100B3000E02DCD016C960FB6F894DEBF0FBECDBF91
:100B4000DF91CF911F910F91FF90EF90DF90CF90A9
:100B5000BF90AF909F908F907F906F905F904F90DD
:100B60003F902F9009946C960FB6F894DEBF0FBE9D
:100B7000CDBFDF91CF911F910F91FF90EF90DF904C
:100B8000CF90BF90AF909F908F907F906F905F902D
:100B90004F903F902F900895AF92BF92CF92EF92D7
:100BA000FF920F931F93CF93DF93EC01262F888D35
:100BB000998D009709F040C06A3059F41D861C8653
:100BC0002C898E859F8538E0239F800D911D1124EF
:100BD00041C06D3009F4AAC08E898823C1F03C89D8
:100BE0008C859D8546E0349F800D911D112448859C
:100BF0005985481759075CF41D861C868E859F858C
:100C000048E0349F800D911D11249F878E87EA88CC
:100C1000FB88088919894E855F856C857D85CC8820
:100C2000CE010E94B6032C898C859D8536E0239FDA
:100C3000800D911D112442C06A3079F41D861C86F6
:100C40002C89FC013696E4918E859F852E9F800D20
:100C5000911D11249F878E8769C06D3009F466C08D
:100C6000FC0134963491631708F460C03196E49126
:100C7000E61708F45BC0FC013296A590B490462FAD
:100C800050E0431B510937E0349FB001359F700D90
:100C90001124A60EB71EF501329634913196E491D7
:100CA000332311F0E1110DC0F5013496E4912C8944
:100CB0008C859D85E29F800D911D11249D878C87D9
:100CC00035C0F501359644915E89552311F16C8943
:100CD000E32FF0E0E40FF11D47FDFA956E9FD00180
:100CE0006F9FB00D11244C855D854A0F5B1FE88511
:100CF000F985E417F5076CF41D861C86FC01369611
:100D0000E4918E859F856E9F800D911D11249F8794
:100D10008E87EA88FB88088919894E855F856C85EE
:100D20007D85CC88CE010E94B603BECF81E090E0E5
:100D3000DF91CF911F910F91FF90EF90CF90BF90D7
:100D4000AF9008956F927F928F929F92AF92BF92D1
:100D5000CF92DF92EF92FF920F931F93CF93DF9387
:100D6000EC014B015A0169013801E881F9810284E3
:100D7000F385E02D0995E881F9810288F389E02D5A
:100D800087019601A501B401CE010995E881F98199
:100D9000A501460D571D415051090288F389E02DE8
:100DA0009601B401CE010995E881F9810088F189A5
:100DB000E02D9301A501B401CE010995E881F981E7
:100DC000C80CD91CB601615071090088F189E02D69
:100DD0009301A501CE010995E881F9810688F7897B
:100DE000E02DCE01DF91CF911F910F91FF90EF90F9
:100DF000DF90CF90BF90AF909F908F907F906F903B
:100E00000994CF92DF92EF92FF920F931F93CF93AB
:100E1000DF9300D000D000D0CDB7DEB76C01DC018D
:100E2000ED91FC916217730789F4041715072CF4F0
:100E3000942F852FA801092F182F041B150B98013B
:100E40002F5F3F4F048CF58DE02D12C040175107E6
:100E500009F5261737072CF4962F872FB901292F6C
:100E6000382F261B370B2F5F3F4F068CF78DE02D59
:100E70008701C601099526960FB6F894DEBF0FBE0E
:100E8000CDBFDF91CF911F910F91FF90EF90DF9039
:100E9000CF9008950284F385E02D2D833E834B830C
:100EA0005C8369837A830995D601ED91FC9104886E
:100EB000F589E02D2D813E814B815C8169817A81AC
:100EC000C6010995D601ED91FC910688F789E02DC0
:100ED000C60126960FB6F894DEBF0FBECDBFDF91D8
:100EE000CF911F910F91FF90EF90DF90CF900994D9
:100EF000EF92FF920F931F93DC01ED91FC911197FC
:100F00001A960D911C911B9718962D913C9119974B
:100F100000A0F1A1E02D7B0140E050E060E070E036
:100F200009951F910F91FF90EF9008954F925F9256
:100F30006F927F928F929F92AF92BF92CF92DF92E9
:100F4000EF92FF920F931F93CF93DF9300D0CDB713
:100F5000DEB76C015A0139014801DC01ED91FC91C9
:100F60000284F385E02D69837A8309956981462E91
:100F70007A81572E640C751CD601ED91FC914614B4
:100F800057046CF40088F189E02D87019401A501D4
:100F9000B201C6010995BFEF4B1A5B0AEDCF068877
:100FA000F789E02DC6010F900F90DF91CF911F912F
:100FB0000F91FF90EF90DF90CF90BF90AF909F90F8
:100FC0008F907F906F905F904F900994AF92BF92F7
:100FD000CF92DF92EF92FF920F931F93CF93DF9305
:100FE00000D000D0CDB7DEB75C016901DC01ED9126
:100FF000FC910284F385E02D4B835C8369837A83C3
:101000000995D501ED91FC9169817A819B012C0DA7
:101010003D1D215031090488F589E02D78014B816F
:101020005C818A01C5010995D501ED91FC91068885
:10103000F789E02DC5010F900F900F900F90DF9171
:10104000CF911F910F91FF90EF90DF90CF90BF90C5
:10105000AF900994AF92BF92CF92DF92EF92FF923E
:101060000F931F93CF93DF9300D000D0CDB7DEB79F
:101070005C016901DC01ED91FC910284F385E02DB6
:101080004B835C8369837A830995D501ED91FC914B
:101090004B815C81C40ED51EB1E0CB1AD108048807
:1010A000F589E02D7801860169817A819B01C5016E
:1010B0000995D501ED91FC910688F789E02DC501D0
:1010C0000F900F900F900F90DF91CF911F910F9184
:1010D000FF90EF90DF90CF90BF90AF90099408956C
:1010E000EF92FF920F931F93DC01ED91FC9100A012
:1010F000F1A1E02D09951F910F91FF90EF900895B8
:101100000F931F93DC01ED91FC91068CF78DE02D80
:1011100009951F910F9108950F931F93DC01ED9195
:10112000FC91048CF58DE02D09951F910F91089588
:10113000DC01ED91FC910084F185E02D0994089586
:101140002F923F924F925F926F927F928F929F92D7
:10115000AF92BF92CF92DF92EF92FF920F931F93C5
:10116000CF93DF9300D01F92CDB7DEB74C017B83C6
:101170006A836A01590117019801241B350B37FF57
:1011800003C0319521953109C5014A815B81841BDA
:10119000950B97FF03C091958195910951E0598373
:1011A0008217930714F019820BC09A2D8B2D5801CA
:1011B000092F182F9A818B81DB82CA82C92ED82EE3
:1011C0008A819B81A816B9065CF49C2D8D2D68013F
:1011D000092F182F9A818B81BB82AA82A92EB82E43
:1011E0002501AA81BB814A1A5B0A38016C187D0867
:1011F00077FE03C0719461947108720157FE03C0B9
:10120000BFEFEB1AFB0AF594E794C016D1061CF069
:101210000FEF1FEF1FC001E010E01CC0D401ED91E3
:10122000FC91B9810484F585E02D9101BB23C1F0C7
:101230004A815B81B601C4010995E618F708F7FEFB
:1012400004C0C00ED11EE40CF51CEA81FB8131966E
:10125000FB83EA834A815B81A416B506FCF604C0D1
:10126000A6016A817B81E7CF0F900F900F90DF91ED
:10127000CF911F910F91FF90EF90DF90CF90BF9093
:10128000AF909F908F907F906F905F904F903F9026
:101290002F900895089580E090E008950F93FC0149
:1012A00030E080E092E1AAE7B0E0481759076A070A
:1012B0007B0740F4B695A795979587953F5F3630A5
:1012C000A1F737E091E09327222311F020E501C038
:1012D00020E7892F86950C70082B022B00839170D4
:1012E00091830F9108951F920F920FB60F921124C0
:1012F0002F933F938F939F93AF93BF93809110024F
:1013000090911102A0911202B091130230910F023C
:1013100023E0230F2D3720F40196A11DB11D05C038
:1013200026E8230F0296A11DB11D20930F02809382
:10133000100290931102A0931202B09313028091B5
:10134000140290911502A0911602B0911702019615
:10135000A11DB11D8093140290931502A093160253
:10136000B0931702BF91AF919F918F913F912F91B1
:101370000F900FBE0F901F9018951F920F920FB6EF
:101380000F9211242F933F934F935F936F937F930B
:101390008F939F93AF93BF93EF93FF938091B90087
:1013A000887F803609F49CC068F5883209F45BC0F8
:1013B00090F4803109F454C038F4882309F4F6C05D
:1013C000883009F44DC0F6C0883109F44CC0803231
:1013D00009F45DC0EFC0803409F468C048F480337C
:1013E00009F455C0883309F0E5C08093E801D8C0FE
:1013F000803509F44FC0883509F45DC0883409F0A0
:10140000D9C0D6C0883909F4C7C0A8F4883709F410
:1014100067C038F4883609F463C0803709F460C0C7
:10142000C9C0883809F4B8C0803909F45FC0803871
:1014300009F0C0C05BC0803B09F486C038F4803A34
:1014400009F466C0883A09F47FC0B4C0803C09F44E
:10145000A7C0883C09F4A4C0883B09F48AC0AAC08C
:1014600080910E0210C090910D0280910C0298178D
:1014700070F5E0910D0281E08E0F80930D02F0E097
:10148000E451FE4F80818093BB0085EC86C0809341
:10149000E8018EC0E0910D0281E08E0F80930D0275
:1014A0008091BB00F0E0E451FE4F808390910D02EB
:1014B00080910C026EC0E0910D0281E08E0F80934E
:1014C0000D028091BB00F0E0E451FE4F80838091DB
:1014D000EB0181116DC081E08093EA0184EA61C073
:1014E00083E08093E9011092E701CFCF8091E7017B
:1014F000803208F051C0E091E70181E08E0F8093C7
:10150000E7018091BB00F0E0E953FE4F8083BDCF3F
:1015100085EC8093BC001092E9018091E701803254
:1015200030F4E091E701F0E0E953FE4F1082609162
:10153000E70170E0E091C501F091C60187EC91E010
:1015400009951092E70136C084E08093E90110927A
:10155000C4011092C301E091C101F091C20109954B
:101560008091C301811105C081E08093C301109275
:10157000A101E091C40181E08E0F8093C401F0E0ED
:10158000EF55FE4F80818093BB009091C401809104
:10159000C301981708F479CF85E88093BC000AC08E
:1015A00085EC8093BC001092E90104C01092E80120
:1015B0000E940703FF91EF91BF91AF919F918F918F
:1015C0007F916F915F914F913F912F910F900FBE3F
:1015D0000F901F901895EF92FF920F931F93CF9348
:1015E000DF9300D0CDB7DEB77C01162F60E0FC01A1
:1015F000828D0E943D0F4091000150910101609148
:1016000002017091030100E021E0CE0101960E94E9
:101610004E0989819A810E949D0380E80E9495036A
:10162000812F0E94950361E0F701828D0E943D0F9A
:101630000F900F90DF91CF911F910F91FF90EF903E
:101640000895EF92FF920F931F93CF93DF9300D0F3
:10165000CDB7DEB77C0160E0FC01828D0E943D0FBA
:1016600040910001509101016091020170910301CC
:1016700000E021E0CE0101960E944E0989819A8105
:101680000E949D0380E40E94950380E00E949503E0
:10169000182F61E0F701828D0E943D0F812F0F907E
:1016A0000F90DF91CF911F910F91FF90EF900895D0
:1016B000EF92FF920F931F93CF93DF9300D0CDB79C
:1016C000DEB77C01162F60E0FC01828D0E943D0F89
:1016D000409100015091010160910201709103015C
:1016E00000E021E0CE0101960E944E0989819A8195
:1016F0000E949D0380E00E949503812F0E94950324
:1017000061E0F701828D0E943D0F0F900F90DF91F5
:10171000CF911F910F91FF90EF900895AF92BF92DC
:10172000CF92DF92EF92FF920F931F93CF93DF93AD
:1017300000D000D01F92CDB7DEB75C01D62E61E994
:101740002C833D834A835B8379830E94EB0A6D2D52
:10175000C5010E94580B62E9C5010E94EB0A79811C
:10176000672FC5010E94580B63E9C5010E94EB0A6F
:101770004A81642FC5010E94580B64E9C5010E948B
:10178000EB0A5B81652FC5010E94580B65E9C50115
:101790000E94EB0A2C81622FC5010E94580B66E95A
:1017A000C5010E94EB0A3D81632FC5010E94580BC1
:1017B00067E9C5010E94EB0A602FC5010E94580B22
:1017C00068E9C5010E94EB0A612FC5010E94580B10
:1017D00063E6C5010E94EB0A6F2D669566956695D6
:1017E000C5010E94580B64E6C5010E94EB0AB701CF
:1017F000607E777085E0769567958A95E1F7C501FB
:101800000E94580B65E6C5010E94EB0A6E2D6F71B0
:10181000C5010E94580B60E9C5010E94EB0ACC206B
:1018200011F060EB01C060E9C5010E94580B60E94E
:10183000C5010E94EB0AC5010E94210B87FDF7CF6D
:101840000F900F900F900F900F90DF91CF911F91FD
:101850000F91FF90EF90DF90CF90BF90AF900895E1
:10186000CF92EF92FF920F931F93FC01068D178D7D
:1018700001501109248D358D21503109CC24C39498
:101880007B0140E050E060E070E00E948E0B1F9111
:101890000F91FF90EF90CF900895CF92EF92FF922B
:1018A0000F931F93040F151F260F371FCC24C394CB
:1018B0000E948E0B1F910F91FF90EF90CF90089593
:1018C000CF92EF92FF920F931F93040F151F260FD5
:1018D000371FC12C0E948E0B1F910F91FF90EF902C
:1018E000CF900895AF92BF92DF92EF92FF920F9345
:1018F0001F93CF93DF9300D000D01F92CDB7DEB7F8
:101900005C01D62E61E92C833D834A835B83798316
:101910000E94EB0A6D2DC5010E94580B62E9C501BA
:101920000E94EB0A7981672FC5010E94580B63E979
:10193000C5010E94EB0A4A81642FC5010E94580B21
:1019400064E9C5010E94EB0A5B81652FC5010E9415
:10195000580B65E9C5010E94EB0A2C81622FC50175
:101960000E94580B66E9C5010E94EB0A3D81632F76
:10197000C5010E94580B67E9C5010E94EB0A602F60
:10198000C5010E94580B68E9C5010E94EB0A612F4E
:10199000C5010E94580B63E6C5010E94EB0A6F2D3A
:1019A000669566956695C5010E94580B64E6C5016B
:1019B0000E94EB0AB701607E777085E076956795A7
:1019C0008A95E1F7C5010E94580B65E6C5010E94A2
:1019D000EB0A6E2D6F71C5010E94580B60E9C501BD
:1019E0000E94EB0A60E8C5010E94580B60E9C5013E
:1019F0000E94EB0AC5010E94210B87FDF7CF0F90D3
:101A00000F900F900F900F90DF91CF911F910F913A
:101A1000FF90EF90DF90BF90AF9008950F931F93CA
:101A2000CF93DF931F92CDB7DEB78C0149830E941D
:101A3000EB0A4981642FC8010F90DF91CF911F916C
:101A40000F910C94580BEF92FF921F93CF93DF935B
:101A500000D000D0CDB7DEB77C01142F462F66E44E
:101A60002C833B835A8379830E940E0D7981472F03
:101A700067E4C7010E940E0D412F68E4C7010E9470
:101A80000E0D5A81452F69E4C7010E940E0D62E0D8
:101A9000C7010E94EB0A60E0F701828D0E943D0FB2
:101AA00080E00E9495033B81832F0E9495032C8147
:101AB000822F0E94950361E0F701828D0F900F90B5
:101AC0000F900F90DF91CF911F91FF90EF900C94AA
:101AD0003D0FEF92FF920F931F93CF93DF937C0103
:101AE0008B01EA01209739F4EB0109900020E9F716
:101AF0002197C61BD70B62E0C7010E94EB0AC00FFB
:101B0000D11F0C171D0789F0F80161918F01C701E2
:101B10000E94580BF70180A1823098F361E070E0D9
:101B200080E090E00E94890FECCFDF91CF911F9170
:101B30000F91FF90EF900895CF93DF93EA010E94F9
:101B4000690DCE01DF91CF910895CF93DF931F925E
:101B5000CDB7DEB7698341E050E0BE016F5F7F4FD4
:101B60000E94690D81E090E00F90DF91CF91089580
:101B7000CF92DF92EF92FF920F931F93CF93DF9359
:101B80006C017A018B01C0E0D0E0CE15DF0589F051
:101B9000D8016D918D01D601ED91FC910190F081FC
:101BA000E02DC6010995892B11F47E0102C0219612
:101BB000ECCFC701DF91CF911F910F91FF90EF9074
:101BC000DF90CF900895FC01538D448D252F30E098
:101BD000842F90E0821B930B541710F0CF9608953A
:101BE00001970895FC01918D828D981761F0828D87
:101BF000DF01A80FB11D5D968C91928D9F5F9F7341
:101C0000928F90E008958FEF9FEF0895FC01918DE2
:101C1000828D981731F0828DE80FF11D858D90E04F
:101C200008958FEF9FEF0895FC01918D228D892FEC
:101C300090E0805C9F4F821B91098F7399270895D4
:101C400089E192E00E94140E21E0892B09F420E042
:101C5000822F0895FC01848DDF01A80FB11DA35AC6
:101C6000BF4F2C91848D90E001968F739927848FBC
:101C7000A689B7892C93A089B1898C9180648C93B3
:101C8000938D848D981306C00288F389E02D80819E
:101C90008F7D80830895EF92FF920F931F93CF93D0
:101CA000DF93EC0181E0888F9B8D8C8D981305C0AC
:101CB000E889F989808185FD24C0F62E0B8D10E01E
:101CC0000F5F1F4F0F731127E02E8C8DE8120CC091
:101CD0000FB607FCFACFE889F989808185FFF5CF37
:101CE000CE010E942A0EF1CF8B8DFE01E80FF11D6F
:101CF000E35AFF4FF0820B8FEA89FB898081806273
:101D000007C0EE89FF896083E889F9898081806452
:101D1000808381E090E0DF91CF911F910F91FF9040
:101D2000EF900895CF93DF93EC01888D8823C9F05D
:101D3000EA89FB89808185FD05C0A889B9898C91D4
:101D400086FD0FC00FB607FCF5CF808185FFF2CF6F
:101D5000A889B9898C9185FFEDCFCE010E942A0E0A
:101D6000E7CFDF91CF91089580E090E0892B29F0B3
:101D70000E94200E81110C94000008953FB7F89442
:101D80008091140290911502A0911602B091170251
:101D900026B5A89B05C02F3F19F00196A11DB11DC6
:101DA0003FBFBA2FA92F982F8827820F911DA11D01
:101DB000B11DBC01CD0142E0660F771F881F991F3E
:101DC0004A95D1F708950E9418141F920F920FB6EA
:101DD0000F9211242F933F934F935F936F937F93B1
:101DE0008F939F93AF93BF93EF93FF9389E192E01B
:101DF0000E942A0EFF91EF91BF91AF919F918F9119
:101E00007F916F915F914F913F912F910F900FBEF6
:101E10000F901F9018951F920F920FB60F921124DA
:101E20002F938F939F93EF93FF93E0912902F0916B
:101E30002A028081E0912F02F091300282FD12C0CF
:101E40009081809132028F5F8F73209133028217CD
:101E500051F0E0913202F0E0E75EFD4F958F809304
:101E6000320201C08081FF91EF919F918F912F915C
:101E70000F900FBE0F901F90189590E0FC01E8594D
:101E8000FA4F3491FC01EC55FA4F2491FC01E057D4
:101E9000FA4FE491EE2309F43BC0332339F1333098
:101EA00091F038F43130A9F0323001F584B58F7DEE
:101EB00012C0373091F03830A1F03430B9F480914D
:101EC00080008F7D03C0809180008F778093800099
:101ED0000DC084B58F7784BD09C08091B0008F7725
:101EE00003C08091B0008F7D8093B000F0E0EE0FD2
:101EF000FF1FE458FA4FA591B4918FB7F894EC9175
:101F0000611103C020952E2301C02E2B2C938FBF6F
:101F100008958F929F92AF92BF92CF92DF92EF92ED
:101F2000FF926B017C010E94BE0E4B015C01C1144B
:101F3000D104E104F104F1F00E94BE0EDC01CB01FA
:101F400088199909AA09BB09883E9340A105B105E2
:101F500070F321E0C21AD108E108F10888EE880E7A
:101F600083E0981EA11CB11CC114D104E104F1044A
:101F700019F7DDCFFF90EF90DF90CF90BF90AF903B
:101F80009F908F90089563E686EB92E00E94EB0AA3
:101F90006FE186EB92E00E94580B64E686EB92E0DC
:101FA0000E94EB0A6FE386EB92E00E94580B65E615
:101FB00086EB92E00E94EB0A6FE186EB92E00E94D2
:101FC000580B62E286EB92E00E94EB0A86EB92E00D
:101FD0000E94210B682F606486EB92E00C94580BF2
:101FE000CF93C82F843008F0C3E062E286EB92E022
:101FF0000E94EB0A86EB92E00E94210B807F94E026
:10200000C99F90011124682F622B6C2B86EB92E004
:102010000E94580BC093D602CF910895FF920F9360
:102020001F93CF93DF931F92CDB7DEB7182F092FE1
:10203000F62E6AE286EB92E079830E94EB0A612F2A
:1020400086EB92E00E94580B6BE286EB92E00E94D6
:10205000EB0A602F86EB92E00E94580B6CE286EB55
:1020600092E00E94EB0A6F2D86EB92E00E94580BE3
:102070006DE286EB92E00E94EB0A7981672F86EB96
:1020800092E00F90DF91CF911F910F91FF900C94F0
:10209000580BCF93DF93009779F0FC01019000205B
:1020A000E9F73197AF01481B590BBC0189E192E078
:1020B0000E94B80DEC0102C0C0E0D0E042E050E068
:1020C0006CE971E089E192E00E94B80D8C0F9D1FD0
:1020D000DF91CF91089590E0FC01EC55FA4F2491E7
:1020E000FC01E057FA4F8491882399F090E0880F23
:1020F000991FFC01EA57FA4FA591B491FC01E458ED
:10210000FA4F859194918FB7F894EC91E22BEC9370
:102110008FBF0895CF93DF9300D01F92CDB7DEB766
:10212000789484B5826084BD84B5816084BD85B5B2
:10213000826085BD85B5816085BD80916E008160BE
:1021400080936E0010928100809181008260809364
:102150008100809181008160809381008091800066
:102160008160809380008091B10084608093B10091
:102170008091B00081608093B00080917A0084608B
:1021800080937A0080917A00826080937A008091B7
:102190007A00816080937A0080917A0080688093D1
:1021A0007A001092C100E0912902F0912A0282E0A7
:1021B0008083E0912502F09126021082E0912702AF
:1021C000F09128028FEC808310923102E0912D0271
:1021D000F0912E0286E08083E0912B02F0912C0298
:1021E000808180618083E0912B02F0912C028081BC
:1021F00088608083E0912B02F0912C0280818068BE
:102200008083E0912B02F0912C0280818F7D80836E
:1022100084E591E00E94491081E090E09093D8021B
:102220008093D70280E293E09093D3028093D2020E
:1022300080EE91E09093D5028093D4028091D002F9
:102240000E946B1061E08091D0020E943D0F80914E
:10225000D1020E946B1060E08091D1020E943D0F7C
:1022600064E670E080E090E00E94890F61E0809178
:10227000D1020E943D0F64E670E080E090E00E9491
:10228000890F1FB7F89480911802811124C0EAE9E0
:10229000F5E08491EEEAF5E09491E82FF0E0EE0F9E
:1022A000FF1FEA57FA4FA591B491EC91E92321F46D
:1022B00061E08AE00E943D0F8AE00E946B108CB5BD
:1022C00080618CBD8CB580648CBD8DE00E946B10EC
:1022D0008BE00E946B10809118028F5F8093180230
:1022E0001FBF88E498EEA1E0B0E0809300019093D6
:1022F0000101A0930201B093030160E086EB92E03C
:102300000E94EB0A86EB92E00E94210B853709F0D0
:102310001DC24AE068E886EB92E00E940E0D61E083
:1023200070E080E090E00E94890F42E069E886EB6F
:1023300092E00E940E0D61E070E080E090E00E946B
:10234000890F4CE060E186EB92E00E940E0D8091D7
:10235000D7029091D802892B49F027E150E202E0A0
:102360003AE1A0E6FA2E10E241E808C028E053E086
:102370000AE03AE0F0E3FF2E18E042E864E086EB82
:1023800092E02B8339835A830E940E0D61E070E046
:1023900080E090E00E94890F8091D2029091D30258
:1023A00023E0969587952A95E1F74FEF480F64E172
:1023B00086EB92E00E940E0D40E065E186EB92E034
:1023C0000E940E0D3981832F90E0029733E095959E
:1023D00087953A95E1F7482F66E186EB92E00E94F7
:1023E0000E0D1695169516954FEF410F67E186EB8A
:1023F00092E00E940E0D4F2D469546954695415010
:1024000068E186EB92E00E940E0D4091D4024150AB
:1024100069E186EB92E00E940E0D8091D4029091CA
:10242000D5020197492F6AE186EB92E00E940E0DDA
:102430005A814FEF450F6BE186EB92E00E940E0D43
:1024400040E06CE186EB92E00E940E0D2B814FEF95
:10245000420F6DE186EB92E00E940E0D40E06EE1CE
:1024600086EB92E00E940E0D4FEF400F6FE186EB7E
:1024700092E00E940E0D40E060E386EB92E00E9445
:102480000E0D40E061E386EB92E00E940E0D40915C
:10249000D202415064E386EB92E00E940E0D8091DF
:1024A000D2029091D3020197492F65E386EB92E027
:1024B0000E940E0D40E062E386EB92E00E940E0D5A
:1024C00040E063E386EB92E00E940E0D4091D4025F
:1024D000415066E386EB92E00E940E0D8091D4029B
:1024E0009091D5020197492F67E386EB92E00E9415
:1024F0000E0D40E86EE886EB92E00E940E0D64EF50
:1025000071E080E090E00E94890F80E099E0ADE307
:10251000B0E08093000190930101A0930201B09379
:10252000030140E861E086EB92E00E940E0D41E07D
:1025300067EC86EB92E00E940E0D4AE86AE886EBB3
:1025400092E00E940E0D4FEF6BE886EB92E00E9446
:102550000E0D60E070E086EB92E00E94300C60E4CB
:1025600086EB92E00E94EB0A86EB92E00E94210B40
:10257000682F6F7786EB92E00E94580BE12C48EFB2
:10258000F42E0CE810E020EF30E04AE050E06AE082
:1025900070E086EB92E00E944D0C50EEE52E57E085
:1025A000F52E24E031E04AE050E06EE071E086EB89
:1025B00092E00E944D0C6FE1E62EF12C20EF30E00E
:1025C0004AE050E066E272E086EB92E00E944D0C39
:1025D0007FE1E72E78EFF72E2CE830E04AEA50E072
:1025E0006AE070E086EB92E00E944D0C2CE830E04F
:1025F0004AEA50E06AEA70E086EB92E00E944D0CF5
:102600002CE830E04AEA50E06AE471E086EB92E0C0
:102610000E944D0C2CE830E04AEA50E06AEE71E08E
:1026200086EB92E00E944D0C2CE830E04AE451E049
:102630006AE070E086EB92E00E944D0C2CE830E0FE
:102640004AE451E06AEA70E086EB92E00E944D0CA9
:102650002CE830E04AE451E06AE471E086EB92E075
:102660000E944D0C2CE830E04AE451E06AEE71E043
:1026700086EB92E00E944D0CE0EEEE2EFF24FA94E1
:102680000CE211E02CE830E04AEA50E06AE872E03F
:1026900086EB92E00E944D0C60E486EB92E00E9493
:1026A000EB0A86EB92E00E94210B682F606886EBB4
:1026B00092E00E94580B61E286EB92E00E94EB0AE6
:1026C00086EB92E00E94210B682F6F7586EB92E0FB
:1026D0000E94580B62E170E084E190E00E940E10CD
:1026E00082E00E94F00F0E94C30F40E050E061E6DC
:1026F00071E086EB92E00E94690D6EE670E080E585
:1027000090E00E940E1081E00E94F00F0E94C30F23
:1027100040E050E069E671E086EB92E00E94690DCE
:1027200062E370E08EE091E00E940E1082E00E9471
:10273000F00F0E94C30F40E050E064E771E086EBC9
:1027400092E00E94690D0E94B40EFDCF8AE891E0EC
:102750000E944910FFCFE9E1F2E01382128288EE75
:1027600093E0A0E0B0E084839583A683B78328E05C
:1027700031E03183208325EC30E03587248724EC59
:1027800030E03787268720EC30E0318B208B21EC3E
:1027900030E0338B228B22EC30E0358B248B26EC1F
:1027A00030E0378B268B118E128E138E148EE9ED4E
:1027B000F2E01382128284839583A683B7838AE131
:1027C00091E091838083E5EEF2E080E580831182E1
:1027D000E6EBF2E01382128220E233E035832483B9
:1027E00080EE91E097838683318720879387828765
:1027F000158A158614861786168681E0848B2FEF3E
:102800003FEF338B228B318B208B868B178A118E77
:10281000108E8CE291E0918380838AE0828F89E040
:10282000838F0895EE0FFF1F0590F491E02D09941A
:0E28300081E090E0F8940C941D14F894FFCF12
:10283E0000093D00000000004B0EB80DE30D920E96
:10284E00140EF20D060E000000005B0347034B0949
:10285E00390340033D033A0300000000A50D9C0D13
:10286E004B094A09230D9F08980870088C088008A8
:10287E00A0086F08A103A00380036C034D0C300C5D
:10288E00720C600C52413838373520737461727493
:10289E0000323A323420504D0044442F4D4D2F59C2
:1028AE00454152004F757473696465200A20546562
:1028BE006D706572617475726500524138383735C6
:1028CE00204E6F7420466F756E6421000D0A000055
:00000001FF
