:100000000C94DD020C9405030C9405030C94050379
:100010000C9405030C9405030C9405030C94050340
:100020000C9405030C9405030C9405030C94050330
:100030000C9405030C9405030C9405030C94050320
:100040000C9498090C9405030C940F0F0C94E90E72
:100050000C9405030C9405030C9405030C94050300
:100060000C94E2090C94050300000000003E5B4F75
:100070005B3E3E6B4F6B3E1C3E7C3E1C183C7E3C08
:10008000181C577D571C1C5E7F5E1C00183C180016
:10009000FFE7C3E7FF0018241800FFE7DBE7FF30A6
:1000A000483A060E2629792926407F050507407F14
:1000B00005253F5A3CE73C5A7F3E1C1C08081C1C87
:1000C0003E7F14227F22145F5F005F5F06097F017D
:1000D0007F006689956A606060606094A2FFA29468
:1000E00008047E040810207E201008082A1C080836
:1000F0001C2A08081E101010100C1E0C1E0C303884
:100100003E3830060E3E0E06000000000000005F84
:1001100000000007000700147F147F14242A7F2AA0
:100120001223130864623649562050000807030062
:10013000001C2241000041221C002A1C7F1C2A08AE
:10014000083E080800807030000808080808000011
:1001500060600020100804023E5149453E00427F85
:10016000400072494949462141494D331814127FD4
:100170001027454545393C4A494931412111090774
:100180003649494936464949291E000014000000F5
:1001900040340000000814224114141414140041C7
:1001A00022140802015909063E415D594E7C121184
:1001B000127C7F494949363E414141227F414141BC
:1001C0003E7F494949417F090909013E4141517337
:1001D0007F0808087F00417F41002040413F017FA8
:1001E000081422417F404040407F021C027F7F0470
:1001F00008107F3E4141413E7F090909063E4151B9
:10020000215E7F09192946264949493203017F01A8
:10021000033F4040403F1F2040201F3F4038403FA9
:10022000631408146303047804036159494D4300BF
:100230007F4141410204081020004141417F0402F6
:10024000010204404040404000030708002054548D
:1002500078407F284444383844444428384444286B
:100260007F385454541800087E090218A4A49C78BE
:100270007F0804047800447D40002040403D007F1A
:100280001028440000417F40007C047804787C08FA
:100290000404783844444438FC18242418182424CE
:1002A00018FC7C08040408485454542404043F44B3
:1002B000243C4040207C1C2040201C3C4030403CE2
:1002C00044281028444C9090907C4464544C440042
:1002D00008364100000077000000413608000201A6
:1002E0000204023C2623263C1EA1A161123A404092
:1002F000207A38545455592155557941225454780F
:1003000042215554784020545579400C1E527212A7
:100310003955555559395454545939555454580030
:1003200000457C410002457D420001457C407D1234
:1003300011127DF0282528F07C5455450020545496
:100340007C547C0A097F4932494949323A44444441
:100350003A324A4848303A4141217A3A424020787C
:10036000009DA0A07D3D4242423D3D4040403D3C7D
:1003700024FF2424487E4943662B2FFC2F2BFF09A2
:1003800029F620C0887E0903205454794100004496
:100390007D413048484A32384040227A007A0A0A81
:1003A000727D0D19317D2629292F282629292926F4
:1003B00030484D4020380808080808080808382F39
:1003C00010C8ACBA2F102834FA00007B00000814C3
:1003D0002A142222142A14085500550055AA55AA99
:1003E00055AAFF55FF55FF000000FF00101010FF39
:1003F00000141414FF001010FF00FF1010F010F094
:10040000141414FC001414F700FF0000FF00FF1484
:1004100014F404FC141417101F10101F101F1414D0
:10042000141F00101010F0000000001F101010101A
:100430001F10101010F010000000FF10101010100E
:1004400010101010FF10000000FF140000FF00FF4C
:1004500000001F10170000FC04F4141417101714E8
:1004600014F404F40000FF00F7141414141414140A
:10047000F700F7141414171410101F101F1414147D
:10048000F4141010F010F000001F101F0000001FE7
:1004900014000000FC140000F010F01010FF10FF1A
:1004A000141414FF141010101F00000000F010FFAF
:1004B000FFFFFFFFF0F0F0F0F0FFFFFF0000000093
:1004C00000FFFF0F0F0F0F0F3844443844FC4A4A17
:1004D0004A347E02020606027E027E0263554941CC
:1004E000633844443C04407E201E2006027E020203
:1004F00099A5E7A5991C2A492A1C4C7201724C3017
:100500004A4D4D303048784830BC625A463D3E49ED
:100510004949007E0101017E2A2A2A2A2A44445F91
:10052000444440514A444040444A51400000FF0185
:1005300003E080FF000008086B6B08361236243693
:10054000060F090F060000181800000010100030F8
:1005500040FF0101001F01011E00191D1712003C80
:100560003C3C3C00000000000000000800020100CC
:10057000000304070000000000000000000000006D
:10058000250028002B0000000000240027002A007E
:100590000404040404040404020202020202030329
:1005A0000303030301020408102040800102040831
:1005B0001020010204081020FC1311241FBECFEFED
:1005C000D8E0DEBFCDBF11E0A0E0B1E0E0EEF8E2A0
:1005D00002C005900D92A639B107D9F722E0A6E92D
:1005E000B1E001C01D92AD3DB207E1F712E0CDEDE3
:1005F000D2E004C02197FE010E946314CC3DD107D4
:10060000C9F70E948E100C946E140C94000085EDB6
:100610008093BC008091BC0084FDFCCF1092DF0170
:1006200008954091B901262F30E0240F311D213269
:100630003105DCF42091DF012430C9F4FC0180E0B5
:1006400090E0861758F43091B9012191DC01A95648
:10065000BE4FA30FB11D2C930196F3CF8091B9012A
:10066000680F6093B90180E0089581E0089582E009
:10067000089508958FEF9FEF08958FEF9FEF0895EE
:100680008091960190E09195819591090895CF937D
:10069000DF9300D0CDB7DEB7CB01642F49835A83F7
:1006A0000E9411034981842F5A81952F0F900F903A
:1006B000DF91CF910895CF93DF931F92CDB7DEB72F
:1006C000698361E0CE0101960E94110381E090E010
:1006D0000F90DF91CF910895EF92FF920F931F93A8
:1006E000DC01ED91FC91260F371F04A0F5A1E02D50
:1006F00078018A0109951F910F91FF90EF9008955D
:10070000EF92FF920F931F937801DC01ED91FC9122
:100710008A01020F131F04A0F5A1E02D9B0109958A
:100720001F910F91FF90EF9008958EBD00000DB4C2
:1007300007FEFDCF8EB5089508958CBD9DBD08952B
:100740000895FC016370658B8481958126813781D2
:10075000613039F0633029F09187808733872287B1
:100760000895318720879387828708952F923F923B
:100770004F925F926F927F928F929F92AF92BF92B1
:10078000CF92DF92EF92FF920F931F93CF93DF935D
:10079000CDB7DEB76C970FB6F894DEBF0FBECDBFF6
:1007A0009C8F8B8F5B011A011F830E833701C982D7
:1007B000DC0158964D915C9159974115510509F00E
:1007C000E5C018968D919C911997681779070CF0E0
:1007D000CAC11A968D919C911B97281639060CF068
:1007E000C2C18C2C912CFB0136E0C39EE00DF11DA3
:1007F0001124FB87EA871E161F060CF0B4C1C40142
:1008000033E0880F991F3A95E1F79D878C87820D19
:10081000931D181619060CF0A6C157968C918111DC
:1008200003C0203B08F02F5FAB8DBC8DED91FC9198
:1008300011970284F385E02DCD012A8F09952A8D29
:10084000B5E02B9F90011124F5013596FF87EE87C7
:10085000BB82AA822501A9014A195B09598B488BE1
:10086000C10108969B8B8A8BE889F989E40DF51DF7
:10087000E859FF4F9491988761013D822C82A885A9
:10088000A0FF13C0AB8DBC8DED91FC91B981B1304F
:1008900031F40484F585E02D2E813F8116C0068455
:1008A000F785E02DEE80FF801AC0EE81FF816E1685
:1008B0007F06F1F0AB8DBC8DED91FC91B981B1302B
:1008C00051F40484F585E02D9301A601B2018B8DCE
:1008D0009C8D09950DC00684F785E02D7301840178
:1008E00094014C815D816A817B818B8D9C8D099502
:1008F000E885E695E887FFEFCF1ADF0A2C813D8176
:10090000280D391D3D832C834A895B89C416D50681
:1009100009F0B5CF5FEF451A550A8A819B81880D92
:10092000991D9B838A83AE85BF854A165B0609F0B5
:100930009BCFEE81FF816E167F0609F4F2C0EB8D2E
:10094000FC8DA081B181F981F13079F4B5016B5F43
:100950007F4F5096ED91FC915197830128E030E054
:10096000A1018B8D9C8D0995DCC06A857B856819FA
:1009700079091E96ED91FC911F9773010C851D85D9
:100980009401A1018B8D9C8D0995CBC0FA01349601
:100990009491329765917491291BCB01B7E02B9FFD
:1009A000800D911D1124FA01259134913B8B2A8BE6
:1009B000FC01459154915B834A83FC013296C490BB
:1009C000319654915E87329614913196D4908981F4
:1009D000823058F0612E012E000C7708AD2D0D2CC1
:1009E000000CBB0BB987A88704C019861886612C38
:1009F000712CAB8DBC8DED91FC9111970284F38528
:100A0000E02DCD010995B9818B2E912C689CC001F8
:100A1000699C900D789C900D1124FC01EA0DFB1D42
:100A2000FD87EC871C82712C612CE12F110FFF0BCD
:100A300095012E0F3F1F3B872A87AC0CB11CA501E7
:100A40004E0F5F1F5F8B4E8BC1018D0D911DD7FC2B
:100A50009A95998F888F4E85641608F062C0862D0E
:100A600090E048855985480F591F489D9001499D40
:100A7000300D589D300D1124D901A20DB31DB98B35
:100A8000A88BAA84BB844C845D84DC80BA85DB1A85
:100A9000E88DF98DE80FF91FFD8BEC8B8D2D8A0DFC
:100AA0002E893F89A216B306B9F1877061F48A8155
:100AB0009B810196EA89FB89AA81BB81EA0FFB1F12
:100AC00074909B838A8377FE20C0AB8DBC8DED91A3
:100AD000FC91B981B13061F40484F585E02D2E815B
:100AE0003F814C895D89B5018B8D9C8D09950DC029
:100AF0000684F785E02DEE80FF808401940148890B
:100B00005989B2018B8D9C8D0995770CEFEFAE1A48
:100B1000BE0A480C591CC2CF3C813C0D3C836394F7
:100B20009ACFAB8DBC8DED91FC9111970688F7891A
:100B3000E02DCD016C960FB6F894DEBF0FBECDBF91
:100B4000DF91CF911F910F91FF90EF90DF90CF90A9
:100B5000BF90AF909F908F907F906F905F904F90DD
:100B60003F902F9009946C960FB6F894DEBF0FBE9D
:100B7000CDBFDF91CF911F910F91FF90EF90DF904C
:100B8000CF90BF90AF909F908F907F906F905F902D
:100B90004F903F902F900895AF92BF92CF92EF92D7
:100BA000FF920F931F93CF93DF93EC01262F888D35
:100BB000998D009709F040C06A3059F41D861C8653
:100BC0002C898E859F8538E0239F800D911D1124EF
:100BD00041C06D3009F4AAC08E898823C1F03C89D8
:100BE0008C859D8546E0349F800D911D112448859C
:100BF0005985481759075CF41D861C868E859F858C
:100C000048E0349F800D911D11249F878E87EA88CC
:100C1000FB88088919894E855F856C857D85CC8820
:100C2000CE010E94B6032C898C859D8536E0239FDA
:100C3000800D911D112442C06A3079F41D861C86F6
:100C40002C89FC013696E4918E859F852E9F800D20
:100C5000911D11249F878E8769C06D3009F466C08D
:100C6000FC0134963491631708F460C03196E49126
:100C7000E61708F45BC0FC013296A590B490462FAD
:100C800050E0431B510937E0349FB001359F700D90
:100C90001124A60EB71EF501329634913196E491D7
:100CA000332311F0E1110DC0F5013496E4912C8944
:100CB0008C859D85E29F800D911D11249D878C87D9
:100CC00035C0F501359644915E89552311F16C8943
:100CD000E32FF0E0E40FF11D47FDFA956E9FD00180
:100CE0006F9FB00D11244C855D854A0F5B1FE88511
:100CF000F985E417F5076CF41D861C86FC01369611
:100D0000E4918E859F856E9F800D911D11249F8794
:100D10008E87EA88FB88088919894E855F856C85EE
:100D20007D85CC88CE010E94B603BECF81E090E0E5
:100D3000DF91CF911F910F91FF90EF90CF90BF90D7
:100D4000AF9008956F927F928F929F92AF92BF92D1
:100D5000CF92DF92EF92FF920F931F93CF93DF9387
:100D6000EC014B015A0169013801E881F9810284E3
:100D7000F385E02D0995E881F9810288F389E02D5A
:100D800087019601A501B401CE010995E881F98199
:100D9000A501460D571D415051090288F389E02DE8
:100DA0009601B401CE010995E881F9810088F189A5
:100DB000E02D9301A501B401CE010995E881F981E7
:100DC000C80CD91CB601615071090088F189E02D69
:100DD0009301A501CE010995E881F9810688F7897B
:100DE000E02DCE01DF91CF911F910F91FF90EF90F9
:100DF000DF90CF90BF90AF909F908F907F906F903B
:100E00000994CF92DF92EF92FF920F931F93CF93AB
:100E1000DF9300D000D000D0CDB7DEB76C01DC018D
:100E2000ED91FC916217730789F4041715072CF4F0
:100E3000942F852FA801092F182F041B150B98013B
:100E40002F5F3F4F048CF58DE02D12C040175107E6
:100E500009F5261737072CF4962F872FB901292F6C
:100E6000382F261B370B2F5F3F4F068CF78DE02D59
:100E70008701C601099526960FB6F894DEBF0FBE0E
:100E8000CDBFDF91CF911F910F91FF90EF90DF9039
:100E9000CF9008950284F385E02D2D833E834B830C
:100EA0005C8369837A830995D601ED91FC9104886E
:100EB000F589E02D2D813E814B815C8169817A81AC
:100EC000C6010995D601ED91FC910688F789E02DC0
:100ED000C60126960FB6F894DEBF0FBECDBFDF91D8
:100EE000CF911F910F91FF90EF90DF90CF900994D9
:100EF000EF92FF920F931F93DC01ED91FC911197FC
:100F00001A960D911C911B9718962D913C9119974B
:100F100000A0F1A1E02D7B0140E050E060E070E036
:100F200009951F910F91FF90EF9008954F925F9256
:100F30006F927F928F929F92AF92BF92CF92DF92E9
:100F4000EF92FF920F931F93CF93DF9300D0CDB713
:100F5000DEB76C015A0139014801DC01ED91FC91C9
:100F60000284F385E02D69837A8309956981462E91
:100F70007A81572E640C751CD601ED91FC914614B4
:100F800057046CF40088F189E02D87019401A501D4
:100F9000B201C6010995BFEF4B1A5B0AEDCF068877
:100FA000F789E02DC6010F900F90DF91CF911F912F
:100FB0000F91FF90EF90DF90CF90BF90AF909F90F8
:100FC0008F907F906F905F904F900994AF92BF92F7
:100FD000CF92DF92EF92FF920F931F93CF93DF9305
:100FE00000D000D0CDB7DEB75C016901DC01ED9126
:100FF000FC910284F385E02D4B835C8369837A83C3
:101000000995D501ED91FC9169817A819B012C0DA7
:101010003D1D215031090488F589E02D78014B816F
:101020005C818A01C5010995D501ED91FC91068885
:10103000F789E02DC5010F900F900F900F90DF9171
:10104000CF911F910F91FF90EF90DF90CF90BF90C5
:10105000AF900994AF92BF92CF92DF92EF92FF923E
:101060000F931F93CF93DF9300D000D0CDB7DEB79F
:101070005C016901DC01ED91FC910284F385E02DB6
:101080004B835C8369837A830995D501ED91FC914B
:101090004B815C81C40ED51EB1E0CB1AD108048807
:1010A000F589E02D7801860169817A819B01C5016E
:1010B0000995D501ED91FC910688F789E02DC501D0
:1010C0000F900F900F900F90DF91CF911F910F9184
:1010D000FF90EF90DF90CF90BF90AF90099408956C
:1010E000EF92FF920F931F93DC01ED91FC9100A012
:1010F000F1A1E02D09951F910F91FF90EF900895B8
:101100000F931F93DC01ED91FC91068CF78DE02D80
:1011100009951F910F9108950F931F93DC01ED9195
:10112000FC91048CF58DE02D09951F910F91089588
:10113000DC01ED91FC910084F185E02D0994089586
:101140002F923F924F925F926F927F928F929F92D7
:10115000AF92BF92CF92DF92EF92FF920F931F93C5
:10116000CF93DF9300D01F92CDB7DEB74C017B83C6
:101170006A836A01590117019801241B350B37FF57
:1011800003C0319521953109C5014A815B81841BDA
:10119000950B97FF03C091958195910951E0598373
:1011A0008217930714F019820BC09A2D8B2D5801CA
:1011B000092F182F9A818B81DB82CA82C92ED82EE3
:1011C0008A819B81A816B9065CF49C2D8D2D68013F
:1011D000092F182F9A818B81BB82AA82A92EB82E43
:1011E0002501AA81BB814A1A5B0A38016C187D0867
:1011F00077FE03C0719461947108720157FE03C0B9
:10120000BFEFEB1AFB0AF594E794C016D1061CF069
:101210000FEF1FEF1FC001E010E01CC0D401ED91E3
:10122000FC91B9810484F585E02D9101BB23C1F0C7
:101230004A815B81B601C4010995E618F708F7FEFB
:1012400004C0C00ED11EE40CF51CEA81FB8131966E
:10125000FB83EA834A815B81A416B506FCF604C0D1
:10126000A6016A817B81E7CF0F900F900F90DF91ED
:10127000CF911F910F91FF90EF90DF90CF90BF9093
:10128000AF909F908F907F906F905F904F903F9026
:101290002F900895089580E090E008950F93FC0149
:1012A00030E080E092E1AAE7B0E0481759076A070A
:1012B0007B0740F4B695A795979587953F5F3630A5
:1012C000A1F737E091E09327222311F020E501C038
:1012D00020E7892F86950C70082B022B00839170D4
:1012E00091830F9108953FB7F89480910A029091ED
:1012F0000B02A0910C02B0910D0226B5A89B05C06F
:101300002F3F19F00196A11DB11D3FBFBA2FA92F84
:10131000982F8827820F911DA11DB11DBC01CD0101
:1013200042E0660F771F881F991F4A95D1F70895ED
:101330001F920F920FB60F9211242F933F938F930A
:101340009F93AF93BF938091060290910702A09163
:101350000802B09109023091050223E0230F2D37D6
:1013600020F40196A11DB11D05C026E8230F0296A9
:10137000A11DB11D209305028093060290930702E0
:10138000A0930802B093090280910A0290910B0287
:10139000A0910C02B0910D020196A11DB11D809388
:1013A0000A0290930B02A0930C02B0930D02BF911E
:1013B000AF919F918F913F912F910F900FBE0F9002
:1013C0001F9018951F920F920FB60F9211242F9312
:1013D0003F934F935F936F937F938F939F93AF93BD
:1013E000BF93EF93FF938091B900887F803609F413
:1013F0009CC068F5883209F45BC090F4803109F430
:1014000054C038F4882309F4F6C0883009F44DC07C
:10141000F6C0883109F44CC0803209F45DC0EFC0D9
:10142000803409F468C048F4803309F455C0883327
:1014300009F0E5C08093DE01D8C0803509F44FC0C3
:10144000883509F45DC0883409F0D9C0D6C0883920
:1014500009F4C7C0A8F4883709F467C038F488369F
:1014600009F463C0803709F460C0C9C0883809F442
:10147000B8C0803909F45FC0803809F0C0C05BC0D3
:10148000803B09F486C038F4803A09F466C0883A93
:1014900009F47FC0B4C0803C09F4A7C0883C09F4BB
:1014A000A4C0883B09F48AC0AAC08091040210C07D
:1014B0009091030280910202981770F5E091030267
:1014C00081E08E0F80930302F0E0EE51FE4F8081A9
:1014D0008093BB0085EC86C08093DE018EC0E091D6
:1014E000030281E08E0F809303028091BB00F0E045
:1014F000EE51FE4F808390910302809102026EC0F4
:10150000E091030281E08E0F809303028091BB0083
:10151000F0E0EE51FE4F80838091E10181116DC0BA
:1015200081E08093E00184EA61C083E08093DF0181
:101530001092DD01CFCF8091DD01803208F051C0E3
:10154000E091DD0181E08E0F8093DD018091BB0091
:10155000F0E0E354FE4F8083BDCF85EC8093BC0068
:101560001092DF018091DD01803230F4E091DD01E5
:10157000F0E0E354FE4F10826091DD0170E0E091F5
:10158000BB01F091BC018DEB91E009951092DD015A
:1015900036C084E08093DF011092BA011092B90145
:1015A000E091B701F091B80109958091B9018111DD
:1015B00005C081E08093B90110929701E091BA01D2
:1015C00081E08E0F8093BA01F0E0E956FE4F8081F2
:1015D0008093BB009091BA018091B901981708F4EB
:1015E00079CF85E88093BC000AC085EC8093BC006D
:1015F0001092DF0104C01092DE010E940703FF91E8
:10160000EF91BF91AF919F918F917F916F915F917A
:101610004F913F912F910F900FBE0F901F901895F3
:10162000EF92FF920F931F93CF93DF9300D0CDB72C
:10163000DEB77C01162F60E0FC01828D0E94410F15
:1016400040910001509101016091020170910301EC
:1016500000E021E0CE0101960E944E0989819A8125
:101660000E949D0380E80E949503812F0E949503AC
:1016700061E0F701828D0E94410F0F900F90DF9182
:10168000CF911F910F91FF90EF900895EF92FF92ED
:101690000F931F93CF93DF9300D0CDB7DEB77C01BC
:1016A00060E0FC01828D0E94410F40910001509149
:1016B0000101609102017091030100E021E0CE017F
:1016C00001960E944E0989819A810E949D0380E4BF
:1016D0000E94950380E00E949503182F61E0F701B6
:1016E000828D0E94410F812F0F900F90DF91CF913B
:1016F0001F910F91FF90EF900895EF92FF920F933B
:101700001F93CF93DF9300D0CDB7DEB77C01162FA8
:1017100060E0FC01828D0E94410F409100015091D8
:101720000101609102017091030100E021E0CE010E
:1017300001960E944E0989819A810E949D0380E052
:101740000E949503812F0E94950361E0F701828D2D
:101750000E94410F0F900F90DF91CF911F910F9139
:10176000FF90EF900895CF93DF93EC010E94100B50
:10177000CE01DF91CF910C94460BAF92BF92CF92E6
:10178000DF92EF92FF920F931F93CF93DF9300D0DE
:1017900000D01F92CDB7DEB75C01D62E61E92C8355
:1017A0003D834A835B8379830E94100B6D2DC501B5
:1017B0000E947D0B62E9C5010E94100B7981672FA1
:1017C000C5010E947D0B63E9C5010E94100B4A818F
:1017D000642FC5010E947D0B64E9C5010E94100BB6
:1017E0005B81652FC5010E947D0B65E9C5010E94E3
:1017F000100B2C81622FC5010E947D0B66E9C5018B
:101800000E94100B3D81632FC5010E947D0B67E98B
:10181000C5010E94100B602FC5010E947D0B68E975
:10182000C5010E94100B612FC5010E947D0B63E66C
:10183000C5010E94100B6F2D669566956695C501D2
:101840000E947D0B64E6C5010E94100BB701607E0B
:10185000777085E0769567958A95E1F7C5010E94D6
:101860007D0B65E6C5010E94100B6E2D6F71C501E1
:101870000E947D0B60E9C5010E94100BCC2011F085
:1018800060EB01C060E9C5010E947D0B60E9C50104
:101890000E94B30B87FDFACF0F900F900F900F901F
:1018A0000F90DF91CF911F910F91FF90EF90DF90FC
:1018B000CF90BF90AF900895CF92EF92FF920F9389
:1018C0001F93FC01068D178D01501109248D358D54
:1018D00021503109CC24C3947B0140E050E060E00A
:1018E00070E00E94BD0B1F910F91FF90EF90CF9081
:1018F0000895CF92EF92FF920F931F93040F151F3D
:10190000260F371FCC24C3940E94BD0B1F910F914B
:10191000FF90EF90CF900895CF92EF92FF920F93A8
:101920001F93040F151F260F371FC12C0E94BD0BDC
:101930001F910F91FF90EF90CF900895AF92BF92BB
:10194000DF92EF92FF920F931F93CF93DF9300D01C
:1019500000D01F92CDB7DEB75C01D62E61E92C8393
:101960003D834A835B8379830E94100B6D2DC501F3
:101970000E947D0B62E9C5010E94100B7981672FDF
:10198000C5010E947D0B63E9C5010E94100B4A81CD
:10199000642FC5010E947D0B64E9C5010E94100BF4
:1019A0005B81652FC5010E947D0B65E9C5010E9421
:1019B000100B2C81622FC5010E947D0B66E9C501C9
:1019C0000E94100B3D81632FC5010E947D0B67E9CA
:1019D000C5010E94100B602FC5010E947D0B68E9B4
:1019E000C5010E94100B612FC5010E947D0B63E6AB
:1019F000C5010E94100B6F2D669566956695C50111
:101A00000E947D0B64E6C5010E94100BB701607E49
:101A1000777085E0769567958A95E1F7C5010E9414
:101A20007D0B65E6C5010E94100B6E2D6F71C5011F
:101A30000E947D0B60E9C5010E94100B60E8C501A2
:101A40000E947D0B60E9C5010E94B30B87FDFACFB0
:101A50000F900F900F900F900F90DF91CF911F91EB
:101A60000F91FF90EF90DF90BF90AF9008950F938C
:101A70001F93CF93DF931F92CDB7DEB78C014983BD
:101A80000E94100B4981642FC8010F90DF91CF9104
:101A90001F910F910C947D0BEF92FF921F93CF93A8
:101AA000DF9300D000D0CDB7DEB77C01142F462FD6
:101AB00066E42C833B835A8379830E94370D7981B6
:101AC000472F67E4C7010E94370D412F68E4C70123
:101AD0000E94370D5A81452F69E4C7010E94370DD6
:101AE00062E0C7010E94100B60E0F701828D0E9446
:101AF000410F80E00E9495033B81832F0E94950354
:101B00002C81822F0E94950361E0F701828D0F9056
:101B10000F900F900F90DF91CF911F91FF90EF905A
:101B20000C94410FEF92FF920F931F93CF93DF938B
:101B30007C018B01EA01209739F4EB010990002028
:101B4000E9F72197C61BD70B62E0C7010E94100B73
:101B5000C00FD11F0C171D0789F0F80161918F018B
:101B6000C7010E947D0BF70180A1823098F361E0EC
:101B700070E080E090E00E948D0FECCFDF91CF917C
:101B80001F910F91FF90EF900895CF93DF93EA019B
:101B90000E94920DCE01DF91CF910895CF93DF93F4
:101BA0001F92CDB7DEB7698341E050E0BE016F5FA1
:101BB0007F4F0E94920D81E090E00F90DF91CF91D6
:101BC0000895CF92DF92EF92FF920F931F93CF93DE
:101BD000DF936C017A018B01C0E0D0E0CE15DF0508
:101BE00089F0D8016D918D01D601ED91FC910190A4
:101BF000F081E02DC6010995892B11F47E0102C008
:101C00002196ECCFC701DF91CF911F910F91FF90EB
:101C1000EF90DF90CF900895FC01538D448D252FD8
:101C200030E0842F90E0821B930B541710F0CF9676
:101C3000089501970895FC01918D828D981761F0A8
:101C4000828DDF01A80FB11D5D968C91928D9F5FF3
:101C50009F73928F90E008958FEF9FEF0895FC019E
:101C6000918D828D981731F0828DE80FF11D858D51
:101C700090E008958FEF9FEF0895FC01918D228DE4
:101C8000892F90E0805C9F4F821B91098F73992769
:101C900008958FE092E00E943D0E21E0892B09F427
:101CA00020E0822F0895FC01848DDF01A80FB11D73
:101CB000A35ABF4F2C91848D90E001968F73992782
:101CC000848FA689B7892C93A089B1898C9180646F
:101CD0008C93938D848D981306C00288F389E02D30
:101CE00080818F7D80830895EF92FF920F931F93E1
:101CF000CF93DF93EC0181E0888F9B8D8C8D9813BF
:101D000005C0E889F989808185FD24C0F62E0B8DF8
:101D100010E00F5F1F4F0F731127E02E8C8DE8121C
:101D20000CC00FB607FCFACFE889F989808185FFDE
:101D3000F5CFCE010E94530EF1CF8B8DFE01E80F3F
:101D4000F11DE35AFF4FF0820B8FEA89FB898081F6
:101D5000806207C0EE89FF896083E889F989808104
:101D60008064808381E090E0DF91CF911F910F919B
:101D7000FF90EF900895CF93DF93EC01888D882337
:101D8000C9F0EA89FB89808185FD05C0A889B989E8
:101D90008C9186FD0FC00FB607FCF5CF808185FFC3
:101DA000F2CFA889B9898C9185FFEDCFCE010E9431
:101DB000530EE7CFDF91CF91089580E090E0892B1B
:101DC00029F00E94490E81110C94000008950E9490
:101DD00069141F920F920FB60F9211242F933F9305
:101DE0004F935F936F937F938F939F93AF93BF9323
:101DF000EF93FF938FE092E00E94530EFF91EF91DB
:101E0000BF91AF919F918F917F916F915F914F9112
:101E10003F912F910F900FBE0F901F9018951F921A
:101E20000F920FB60F9211242F938F939F93EF93DE
:101E3000FF93E0911F02F09120028081E091250242
:101E4000F091260282FD12C09081809128028F5F5E
:101E50008F7320912902821751F0E0912802F0E05F
:101E6000E15FFD4F958F8093280201C08081FF9133
:101E7000EF919F918F912F910F900FBE0F901F9018
:101E8000189590E0FC01E859FA4F3491FC01EC55AB
:101E9000FA4F2491FC01E057FA4FE491EE2309F444
:101EA0003BC0332339F1333091F038F43130A9F0AD
:101EB000323001F584B58F7D12C0373091F0383063
:101EC000A1F03430B9F4809180008F7D03C08091FF
:101ED00080008F77809380000DC084B58F7784BD9C
:101EE00009C08091B0008F7703C08091B0008F7DD2
:101EF0008093B000F0E0EE0FFF1FE458FA4FA59179
:101F0000B4918FB7F894EC91611103C020952E2302
:101F100001C02E2B2C938FBF08958F929F92AF926A
:101F2000BF92CF92DF92EF92FF926B017C010E94F1
:101F300073094B015C01C114D104E104F104F1F017
:101F40000E947309DC01CB0188199909AA09BB0910
:101F5000883E9340A105B10570F321E0C21AD10873
:101F6000E108F10888EE880E83E0981EA11CB11CE0
:101F7000C114D104E104F10419F7DDCFFF90EF9013
:101F8000DF90CF90BF90AF909F908F90089563E6C1
:101F90008CEA92E00E94100B6FE18CEA92E00E94C2
:101FA0007D0B64E68CEA92E00E94100B6FE38CEAF2
:101FB00092E00E947D0B65E68CEA92E00E94100B95
:101FC0006FE18CEA92E00E947D0B62E28CEA92E083
:101FD0000E94100B8CEA92E00E94460B682F60640E
:101FE0008CEA92E00C947D0BCF93C82F843008F0DC
:101FF000C3E062E28CEA92E00E94100B8CEA92E06D
:102000000E94460B807F94E0C99F90011124682FA5
:10201000622B6C2B8CEA92E00E947D0BC093CC0269
:10202000CF910895FF920F931F93CF93DF931F9249
:10203000CDB7DEB7182F092FF62E6AE28CEA92E0B0
:1020400079830E94100B612F8CEA92E00E947D0B35
:102050006BE28CEA92E00E94100B602F8CEA92E017
:102060000E947D0B6CE28CEA92E00E94100B6F2DB7
:102070008CEA92E00E947D0B6DE28CEA92E00E9475
:10208000100B7981672F8CEA92E00F90DF91CF914E
:102090001F910F91FF900C947D0BCF93DF930097CE
:1020A00079F0FC0101900020E9F73197AF01481B5E
:1020B000590BBC018FE092E00E94E10DEC0102C0DF
:1020C000C0E0D0E042E050E063E971E08FE092E0F0
:1020D0000E94E10D8C0F9D1FDF91CF91089590E03C
:1020E000FC01EC55FA4F2491FC01E057FA4F849122
:1020F000882399F090E0880F991FFC01EA57FA4F66
:10210000A591B491FC01E458FA4F859194918FB751
:10211000F894EC91E22BEC938FBF0895CF93DF936B
:1021200000D01F92CDB7DEB7789484B5826084BDAD
:1021300084B5816084BD85B5826085BD85B58160CB
:1021400085BD80916E00816080936E001092810049
:102150008091810082608093810080918100816004
:1021600080938100809180008160809380008091C5
:10217000B10084608093B1008091B0008160809351
:10218000B00080917A00846080937A0080917A0018
:10219000826080937A0080917A00816080937A00D7
:1021A00080917A00806880937A001092C100E0915B
:1021B0001F02F091200282E08083E0911B02F091E7
:1021C0001C021082E0911D02F0911E028FEC8083B0
:1021D00010922702E0912302F091240286E080838E
:1021E000E0912102F0912202808180618083E09160
:1021F0002102F0912202808188608083E091210297
:10220000F0912202808180688083E0912102F09128
:10221000220280818F7D808384E591E00E944D10B1
:1022200081E090E09093CE028093CD0280E293E033
:102230009093C9028093C80280EE91E09093CB0204
:102240008093CA028091C6020E946F1061E0809163
:10225000C6020E94410F8091C7020E946F1060E089
:102260008091C7020E94410F64E670E080E090E038
:102270000E948D0F61E08091C7020E94410F64E6C9
:1022800070E080E090E00E948D0F1FB7F89480917D
:102290000E02811124C0EAE9F5E08491EEEAF5E04E
:1022A0009491E82FF0E0EE0FFF1FEA57FA4FA59147
:1022B000B491EC91E92321F461E08AE00E94410F9E
:1022C0008AE00E946F108CB580618CBD8CB58064F3
:1022D0008CBD8DE00E946F108BE00E946F1080918A
:1022E0000E028F5F80930E021FBF88E498EEA1E07C
:1022F000B0E08093000190930101A0930201B0939C
:10230000030160E08CEA92E00E94B30B853709F08C
:1023100045C24AE068E88CEA92E00E94370D61E02D
:1023200070E080E090E00E948D0F42E069E88CEA66
:1023300092E00E94370D61E070E080E090E00E9442
:102340008D0F4CE060E18CEA92E00E94370D8091A5
:10235000CD029091CE02892B49F027E150E202E0B4
:102360003AE1B0E6FB2E10E241E808C028E053E075
:102370000AE03AE0A0E3FA2E18E042E864E08CEAD2
:1023800092E02B8339835A830E94370D61E070E01D
:1023900080E090E00E948D0F8091C8029091C90268
:1023A00033E0969587953A95E1F74FEF480F64E152
:1023B0008CEA92E00E94370D40E065E18CEA92E001
:1023C0000E94370D3981832F90E0029743E0959565
:1023D00087954A95E1F7482F66E18CEA92E00E94E2
:1023E000370D1695169516954FEF410F67E18CEA5C
:1023F00092E00E94370D4F2D4695469546954150E7
:1024000068E18CEA92E00E94370D4091CA02415087
:1024100069E18CEA92E00E94370D8091CA029091A6
:10242000CB020197492F6AE18CEA92E00E94370DB6
:102430005A814FEF450F6BE18CEA92E00E94370D15
:1024400040E06CE18CEA92E00E94370D2B814FEF67
:10245000420F6DE18CEA92E00E94370D40E06EE1A0
:102460008CEA92E00E94370D4FEF400F6FE18CEA4B
:1024700092E00E94370D40E060E38CEA92E00E9417
:10248000370D40E061E38CEA92E00E94370D409105
:10249000C802415064E38CEA92E00E94370D8091BB
:1024A000C8029091C9020197492F65E38CEA92E036
:1024B0000E94370D40E062E38CEA92E00E94370D03
:1024C00040E063E38CEA92E00E94370D4091CA023B
:1024D000415066E38CEA92E00E94370D8091CA0277
:1024E0009091CB020197492F67E38CEA92E00E941A
:1024F000370D40E86EE88CEA92E00E94370D64EFF9
:1025000071E080E090E00E948D0F80E099E0ADE303
:10251000B0E08093000190930101A0930201B09379
:10252000030140E861E08CEA92E00E94370D41E04F
:1025300067EC8CEA92E00E94370D4AE86AE88CEA80
:1025400092E00E94370D4FEF6BE88CEA92E00E9418
:10255000370D60E070E08CEA92E00E945C0C60E471
:102560008CEA92E00E94100B8CEA92E00E94460BEB
:10257000682F6F778CEA92E00E947D0BE12C58EF78
:10258000F52E0CE810E020EF30E04AE050E06AE081
:1025900070E08CEA92E00E94790C60EEE62E67E033
:1025A000F62E24E031E04AE050E06EE071E08CEA83
:1025B00092E00E94790C7FE1E72EF12C20EF30E0D1
:1025C0004AE050E066E272E08CEA92E00E94790C08
:1025D000EFE1EE2EE8EFFE2E2CE830E04AEA50E084
:1025E0006AE070E08CEA92E00E94790C2CE830E01E
:1025F0004AEA50E06AEA70E08CEA92E00E94790CC4
:102600002CE830E04AEA50E06AE471E08CEA92E0BB
:102610000E94790C2CE830E04AEA50E06AEE71E062
:102620008CEA92E00E94790C2CE830E04AE451E018
:102630006AE070E08CEA92E00E94790C2CE830E0CD
:102640004AE451E06AEA70E08CEA92E00E94790C78
:102650002CE830E04AE451E06AE471E08CEA92E070
:102660000E94790C2CE830E04AE451E06AEE71E017
:102670008CEA92E00E94790CF0EEEF2EFF24FA949F
:102680000CE211E02CE830E04AEA50E06AE872E03F
:102690008CEA92E00E94790C60E48CEA92E00E945D
:1026A000100B8CEA92E00E94460B682F60688CEA5F
:1026B00092E00E947D0B61E28CEA92E00E94100B96
:1026C0008CEA92E00E94460B682F6F758CEA92E0CC
:1026D0000E947D0B62E170E084E190E00E941210A4
:1026E00082E00E94F40F0E94C70F40E050E061E6D4
:1026F00071E08CEA92E00E94920D6EE670E080E557
:1027000090E00E94121081E00E94F40F0E94C70F17
:1027100040E050E069E671E08CEA92E00E94920DA0
:1027200062E370E08EE091E00E94121082E00E946D
:10273000F40F0E94C70F40E050E064E771E08CEABC
:1027400092E00E94920D8091CD029091CE0201976D
:1027500011F042E001C044E0486B60E78CEA92E08F
:102760000E94370D44E061E78CEA92E00E94370D49
:1027700060EF8CEA92E00E94B30B482F446060EF58
:102780008CEA92E00E94370D61EF8CEA92E00E94A1
:10279000B30B82FD08C00E94DD0EF6CF81E891E008
:1027A0000E944D10FFCF62E78CEA92E00E94B30BCB
:1027B00063E78CEA92E00E94B30B082F10E064E715
:1027C0008CEA92E00E94B30B000F111F000F111F43
:1027D00090E0959587959595879583709927802B9F
:1027E000912B909301008093000044E061EF8CEA0C
:1027F00092E00E94370DCFCFEFE0F2E01382128219
:1028000088EE93E0A0E0B0E084839583A683B7834D
:1028100028E031E03183208325EC30E035872487C0
:1028200024EC30E03787268720EC30E0318B208B9A
:1028300021EC30E0338B228B22EC30E0358B248B83
:1028400026EC30E0378B268B118E128E138E148E71
:10285000EFECF2E01382128284839583A683B78320
:102860008AE191E091838083EBEDF2E080E5808363
:102870001182ECEAF2E01382128220E233E0358327
:10288000248380EE91E09783868331872087938726
:102890008287158A158614861786168681E0848BB2
:1028A0002FEF3FEF338B228B318B208B868B178A58
:1028B000118E108E8CE291E0918380838AE0828F6A
:1028C00089E0838F0895EE0FFF1F0590F491E02DAE
:1028D000099481E090E0F8940C946E14F894FFCF82
:1028E00000093D0000000000740EE10D0C0EBB0E4F
:1028F0003D0E1B0E2F0E000000005B0347034B092B
:10290000390340033D033A0300000000CE0DC50D1E
:102910004B094A094C0D9F08980870088C088008DC
:10292000A0086F08A103A00380036C03790C5C0C62
:102930009E0C8C0C52413838373520737461727498
:1029400000323A323420504D0044442F4D4D2F591F
:10295000454152004F7574736964652E2E2E2E2EDC
:1029600000524138383735204E6F7420466F756EEF
:062970006421000D0A00C5
:00000001FF
